{
  "_format": "hh-sol-artifact-1",
  "contractName": "DeBlog",
  "sourceName": "contracts/DeBlog.sol",
  "abi": [
    {
      "inputs": [],
      "stateMutability": "nonpayable",
      "type": "constructor"
    },
    {
      "anonymous": false,
      "inputs": [
        {
          "indexed": false,
          "internalType": "uint256",
          "name": "blogId",
          "type": "uint256"
        },
        {
          "indexed": false,
          "internalType": "address",
          "name": "owner",
          "type": "address"
        },
        {
          "indexed": false,
          "internalType": "string",
          "name": "blogTitle",
          "type": "string"
        },
        {
          "indexed": false,
          "internalType": "string",
          "name": "subTitle",
          "type": "string"
        },
        {
          "indexed": false,
          "internalType": "string",
          "name": "authorName",
          "type": "string"
        },
        {
          "indexed": false,
          "internalType": "string",
          "name": "blogContent",
          "type": "string"
        },
        {
          "indexed": false,
          "internalType": "uint256",
          "name": "blogUploaded",
          "type": "uint256"
        }
      ],
      "name": "BlogAdded",
      "type": "event"
    },
    {
      "inputs": [],
      "name": "getAllblogs",
      "outputs": [
        {
          "components": [
            {
              "internalType": "uint256",
              "name": "blogId",
              "type": "uint256"
            },
            {
              "internalType": "address",
              "name": "blogOwner",
              "type": "address"
            },
            {
              "internalType": "string",
              "name": "blogTitle",
              "type": "string"
            },
            {
              "internalType": "string",
              "name": "subTitle",
              "type": "string"
            },
            {
              "internalType": "string",
              "name": "authorName",
              "type": "string"
            },
            {
              "internalType": "string",
              "name": "blogContent",
              "type": "string"
            },
            {
              "internalType": "uint256",
              "name": "timestamp",
              "type": "uint256"
            }
          ],
          "internalType": "struct DeBlog.Blog[]",
          "name": "",
          "type": "tuple[]"
        }
      ],
      "stateMutability": "view",
      "type": "function"
    },
    {
      "inputs": [
        {
          "internalType": "uint256",
          "name": "blogId_",
          "type": "uint256"
        },
        {
          "internalType": "string",
          "name": "blogTitle_",
          "type": "string"
        },
        {
          "internalType": "string",
          "name": "subTitle_",
          "type": "string"
        },
        {
          "internalType": "string",
          "name": "authorName_",
          "type": "string"
        },
        {
          "internalType": "string",
          "name": "blogContent_",
          "type": "string"
        }
      ],
      "name": "newBlog",
      "outputs": [],
      "stateMutability": "payable",
      "type": "function"
    },
    {
      "inputs": [
        {
          "internalType": "address payable",
          "name": "blogOwner_",
          "type": "address"
        }
      ],
      "name": "tipToOwner",
      "outputs": [],
      "stateMutability": "payable",
      "type": "function"
    }
  ],
  "bytecode": "0x608060405234801561001057600080fd5b50336000806101000a81548173ffffffffffffffffffffffffffffffffffffffff021916908373ffffffffffffffffffffffffffffffffffffffff160217905550610d06806100606000396000f3fe6080604052600436106100345760003560e01c80633ed347e914610039578063412e1e4e146100555780638d2a657f14610080575b600080fd5b610053600480360381019061004e91906107b9565b61009c565b005b34801561006157600080fd5b5061006a61022b565b6040516100779190610aef565b60405180910390f35b61009a60048036038101906100959190610b4f565b61053c565b005b60016040518060e001604052808781526020013373ffffffffffffffffffffffffffffffffffffffff1681526020018681526020018581526020018481526020018381526020014281525090806001815401808255809150506001900390600052602060002090600702016000909190919091506000820151816000015560208201518160010160006101000a81548173ffffffffffffffffffffffffffffffffffffffff021916908373ffffffffffffffffffffffffffffffffffffffff160217905550604082015181600201908051906020019061017d929190610586565b50606082015181600301908051906020019061019a929190610586565b5060808201518160040190805190602001906101b7929190610586565b5060a08201518160050190805190602001906101d4929190610586565b5060c0820151816006015550507f4f7006dc55b862d2e2cef560ea2de02c43cd11c45950e33bfb0ceefe6f2cd7dd8533868686864260405161021c9796959493929190610be4565b60405180910390a15050505050565b60606001805480602002602001604051908101604052809291908181526020016000905b8282101561053357838290600052602060002090600702016040518060e0016040529081600082015481526020016001820160009054906101000a900473ffffffffffffffffffffffffffffffffffffffff1673ffffffffffffffffffffffffffffffffffffffff1673ffffffffffffffffffffffffffffffffffffffff1681526020016002820180546102e290610c9e565b80601f016020809104026020016040519081016040528092919081815260200182805461030e90610c9e565b801561035b5780601f106103305761010080835404028352916020019161035b565b820191906000526020600020905b81548152906001019060200180831161033e57829003601f168201915b5050505050815260200160038201805461037490610c9e565b80601f01602080910402602001604051908101604052809291908181526020018280546103a090610c9e565b80156103ed5780601f106103c2576101008083540402835291602001916103ed565b820191906000526020600020905b8154815290600101906020018083116103d057829003601f168201915b5050505050815260200160048201805461040690610c9e565b80601f016020809104026020016040519081016040528092919081815260200182805461043290610c9e565b801561047f5780601f106104545761010080835404028352916020019161047f565b820191906000526020600020905b81548152906001019060200180831161046257829003601f168201915b5050505050815260200160058201805461049890610c9e565b80601f01602080910402602001604051908101604052809291908181526020018280546104c490610c9e565b80156105115780601f106104e657610100808354040283529160200191610511565b820191906000526020600020905b8154815290600101906020018083116104f457829003601f168201915b505050505081526020016006820154815250508152602001906001019061024f565b50505050905090565b8073ffffffffffffffffffffffffffffffffffffffff166108fc349081150290604051600060405180830381858888f19350505050158015610582573d6000803e3d6000fd5b5050565b82805461059290610c9e565b90600052602060002090601f0160209004810192826105b457600085556105fb565b82601f106105cd57805160ff19168380011785556105fb565b828001600101855582156105fb579182015b828111156105fa5782518255916020019190600101906105df565b5b509050610608919061060c565b5090565b5b8082111561062557600081600090555060010161060d565b5090565b6000604051905090565b600080fd5b600080fd5b6000819050919050565b6106508161063d565b811461065b57600080fd5b50565b60008135905061066d81610647565b92915050565b600080fd5b600080fd5b6000601f19601f8301169050919050565b7f4e487b7100000000000000000000000000000000000000000000000000000000600052604160045260246000fd5b6106c68261067d565b810181811067ffffffffffffffff821117156106e5576106e461068e565b5b80604052505050565b60006106f8610629565b905061070482826106bd565b919050565b600067ffffffffffffffff8211156107245761072361068e565b5b61072d8261067d565b9050602081019050919050565b82818337600083830152505050565b600061075c61075784610709565b6106ee565b90508281526020810184848401111561077857610777610678565b5b61078384828561073a565b509392505050565b600082601f8301126107a05761079f610673565b5b81356107b0848260208601610749565b91505092915050565b600080600080600060a086880312156107d5576107d4610633565b5b60006107e38882890161065e565b955050602086013567ffffffffffffffff81111561080457610803610638565b5b6108108882890161078b565b945050604086013567ffffffffffffffff81111561083157610830610638565b5b61083d8882890161078b565b935050606086013567ffffffffffffffff81111561085e5761085d610638565b5b61086a8882890161078b565b925050608086013567ffffffffffffffff81111561088b5761088a610638565b5b6108978882890161078b565b9150509295509295909350565b600081519050919050565b600082825260208201905092915050565b6000819050602082019050919050565b6108d98161063d565b82525050565b600073ffffffffffffffffffffffffffffffffffffffff82169050919050565b600061090a826108df565b9050919050565b61091a816108ff565b82525050565b600081519050919050565b600082825260208201905092915050565b60005b8381101561095a57808201518184015260208101905061093f565b83811115610969576000848401525b50505050565b600061097a82610920565b610984818561092b565b935061099481856020860161093c565b61099d8161067d565b840191505092915050565b600060e0830160008301516109c060008601826108d0565b5060208301516109d36020860182610911565b50604083015184820360408601526109eb828261096f565b91505060608301518482036060860152610a05828261096f565b91505060808301518482036080860152610a1f828261096f565b91505060a083015184820360a0860152610a39828261096f565b91505060c0830151610a4e60c08601826108d0565b508091505092915050565b6000610a6583836109a8565b905092915050565b6000602082019050919050565b6000610a85826108a4565b610a8f81856108af565b935083602082028501610aa1856108c0565b8060005b85811015610add5784840389528151610abe8582610a59565b9450610ac983610a6d565b925060208a01995050600181019050610aa5565b50829750879550505050505092915050565b60006020820190508181036000830152610b098184610a7a565b905092915050565b6000610b1c826108df565b9050919050565b610b2c81610b11565b8114610b3757600080fd5b50565b600081359050610b4981610b23565b92915050565b600060208284031215610b6557610b64610633565b5b6000610b7384828501610b3a565b91505092915050565b610b858161063d565b82525050565b610b94816108ff565b82525050565b600082825260208201905092915050565b6000610bb682610920565b610bc08185610b9a565b9350610bd081856020860161093c565b610bd98161067d565b840191505092915050565b600060e082019050610bf9600083018a610b7c565b610c066020830189610b8b565b8181036040830152610c188188610bab565b90508181036060830152610c2c8187610bab565b90508181036080830152610c408186610bab565b905081810360a0830152610c548185610bab565b9050610c6360c0830184610b7c565b98975050505050505050565b7f4e487b7100000000000000000000000000000000000000000000000000000000600052602260045260246000fd5b60006002820490506001821680610cb657607f821691505b60208210811415610cca57610cc9610c6f565b5b5091905056fea26469706673582212207a046529e4e9e2358fa5c28e26f9af86a7355d23d8917531fd009529d0f75cce64736f6c634300080a0033",
  "linkReferences": {},
  "deployedLinkReferences": {}
}